:020000040800F2
:10000000484A0020E1010008B7090008AF090008CC
:10001000B30900085106000809110008000000009B
:10002000000000000000000000000000490100087E
:1000300097080008000000008D010008BD0B0008B3
:10004000FB010008FB010008FB010008FB010008A0
:10005000FB010008FB010008FB010008FB01000890
:10006000FB010008FB010008FB0100085506000821
:10007000FB010008FB010008FB010008FB01000870
:10008000FB010008FB010008FB010008FB01000860
:10009000FB010008FB010008FB010008FB01000850
:1000A000FB010008FB010008FB010008FB01000840
:1000B000510C0008CD0C0008E90C0008FB010008F9
:1000C000FB010008FB010008FB010008FB01000820
:1000D000FB010008FB010008FB010008FB01000810
:1000E000FB010008FB010008FB010008FB01000800
:1000F000FB010008FB010008FB010008FB010008F0
:10010000FB010008FB010008FB010008FB010008DF
:10011000FB010008FB010008FB010008FB010008CF
:10012000FB010008FB010008FB010008FB010008BF
:10013000DFF810D000F08EF800480047491700089B
:10014000AFF30080484A0020224B19680868B0E8E5
:10015000F00F80F30988BFF36F8F4FF0000080F33A
:1001600011884EF00D0E7047000000000648006830
:10017000006880F3088862B661B6BFF34F8FBFF3A3
:100180006F8F00DF00BF00BF08ED00E0EFF30980D4
:10019000BFF36F8F0F4B1A6820E9F00F106008B59E
:1001A0004FF0BF0080F31188BFF34F8FBFF36F8F05
:1001B00002F0DAF84FF0000080F31188BDE8084043
:1001C00019680868B0E8F00F80F30988BFF36F8FF3
:1001D000704700BF24000020EFF305807047000047
:1001E0000648804706480047FEE7FEE7FEE7FEE7D1
:1001F000FEE7FEE7FEE7FEE7FEE7FEE7F10B00089D
:1002000031010008D2B201E000F8012B491EFBD2F7
:1002100070470022F6E710B513460A460446194611
:10022000FFF7F0FF204610BD30B50B460146002019
:100230002022012409E021FA02F59D4205D303FAA8
:1002400002F5491B04FA02F52844151EA2F1010229
:10025000F1DC30BD064C074D06E0E06840F00103DC
:1002600094E8070098471034AC42F6D3FFF764FFD8
:100270005C2800087C28000800B587B001214802EE
:1002800000F018FC00214FF4007000F013FC012175
:10029000102000F0FFFB0F20ADF8180000208DF8B3
:1002A0001B0006A92C4800F0F7FA00F07BF80121AA
:1002B000480200F0EFFB4FF4004000F0BFFB27487E
:1002C00000F0B4F80020019001208DF808008DF8AE
:1002D0000900C00403900020049004208DF814004D
:1002E00001A91E4800F0F0F8052301220A211B484D
:1002F00000F012F9052302220B21184800F00CF936
:10030000052303220C21154800F006F905230422D9
:100310000D21124800F000F90121104800F036F8D4
:1003200001210E4800F027F80C4800F051F900BFF9
:100330000A4800F0BEF80028FAD1084800F04DF94C
:1003400000BF064800F0ABF80028FAD101210348AD
:1003500000F09AF807B000BD0010014000240140F1
:1003600010B50121480200F0A5FB00214FF40070F8
:1003700000F0A0FB10BD21B1826842F00102826052
:1003800003E0826822F001028260704721B1826836
:1003900042F48072826003E0826822F4807282609C
:1003A0007047000000B58DB00121084600F052FBF7
:1003B0001B4800F08DF91B4802901B480390002059
:1003C000049028200590002006908020079040008F
:1003D00008908000099020200A9000020B900020D5
:1003E0000C9002A90E4800F038FA012202210C48B4
:1003F00000F02AFA01210A4800F05EF90B208DF87E
:10040000040002208DF8050000208DF80600012070
:100410008DF8070001A800F0CFFA0DB000BD000074
:10042000080002404C240140F845002010B5044665
:100430001248844208D10121401500F03BFB002105
:10044000601500F037FB17E00D48844208D1012108
:10045000001500F02FFB0021201500F02BFB0BE016
:100460000848844208D10121C80300F023FB002181
:100470004FF4004000F01EFB10BD000000240140BE
:1004800000280140003C014021B1826842F4801202
:10049000826003E0826822F4801282607047014625
:1004A00000208A6802F004020AB1012000E0002066
:1004B0007047014600208A6802F008020AB1012054
:1004C00000E000207047000030B502460020002305
:1004D00050680F4C20400D790C6844EA05242043F5
:1004E000506090680B4C2040D1E902542C434D7968
:1004F00044EA450420439060D06A20F470000C7CEC
:10050000641EE4B2234340EA0350D06230BD0000D1
:10051000FFFEF0FFFDF7F1FFF0B504460D460020A9
:100520000021092D11DDE068A5F10A0606EB46075A
:10053000072606FA07F18843A5F10A0606EB4606E8
:1005400003FA06F10843E0600CE0206905EB45077B
:10055000072606FA07F1884305EB450603FA06F17C
:1005600008432061072A0FDA606B561E06EB8607E8
:100570001F2606FA07F18843561E06EB860605FA83
:1005800006F10843606322E00D2A0FDA206BD61FC4
:1005900006EB86071F2606FA07F18843D61F06EBEF
:1005A000860605FA06F10843206310E0E06AA2F12E
:1005B0000D0606EB86071F2606FA07F18843A2F10F
:1005C0000D0606EB860605FA06F10843E062F0BD6B
:1005D000816841F0080181607047816841F0040141
:1005E00081607047032000F055FD002802DA0CA05E
:1005F00000F08CFD00BFFFF73FFE01F00BFC0A206E
:1006000001F0F4FB0646304600F05AFF0546284646
:1006100000F059FF0446214607A000F077FDEAE705
:1006200073746172742074696D6572206661696C9F
:10063000656421210A00000063757272656E742082
:1006400074656D70657261747572653A25640A002F
:1006500000BFFEE708B500200090022000F0DEF8A1
:10066000B0B1012000F01AF86A460021094800687C
:1006700001F04CFDFFF774FE00BF009838B14FF059
:10068000805005490860BFF34F8FBFF36F8F00BFE5
:1006900008BD00007400002004ED00E000F080516F
:1006A00011B10349086001E0024948607047000049
:1006B000040402400000024021B1026842F001023D
:1006C000026004E002684FF6FE731A400260704751
:1006D00001684FF6FE721140016000210160416027
:1006E0008160C1604B49884208D14A49083949684C
:1006F00041F00F01474A083A51608AE045491431F8
:10070000884208D143490839496841F0F001414A1B
:10071000083A51607DE03F492831884208D13D497F
:100720000839496841F470613A4A083A516070E00A
:1007300038493C31884208D136490839496841F482
:100740007041344A083A516063E03249503188427E
:1007500008D130490839496841F470212D4A083AD6
:10076000516056E02B496431884208D12949083943
:10077000496841F47001274A083A516049E0254927
:100780007831884208D123490839496841F07061BD
:10079000204A083A51603CE01F49884206D1011FB7
:1007A000096841F00F01021F116032E01A4914314B
:1007B000884208D11849091F096841F0F001164A1A
:1007C000121F116025E014492831884208D11249CE
:1007D000091F096841F470610F4A121F116018E087
:1007E0000D493C31884208D10B49091F096841F481
:1007F0007041094A121F11600BE0074950318842CD
:1008000007D10549091F096841F47021024A121FE6
:1008100011607047080002400804024001460020B1
:10082000002201F0805313B1054B1A6801E0054B1B
:100830001A6802EA01030BB1012000E000207047B2
:1008400000040240000002401AB103680B43036039
:1008500002E003688B430360704710B50022026812
:1008600047F6F0739A430C6A8B6823430C69234361
:100870004C6923438C692343CC6923434C6A23434B
:100880008C6A23431A430260CB6843600B68836021
:100890004B68C36010BD70472DE9F041024600254A
:1008A0000026002000230024002791F803C00CF04C
:1008B0000F0591F803C00CF0100CBCF1000F03D031
:1008C00091F802C04CEA050591F800C0BCF1000F98
:1008D00031D0146800202BE04FF0010C0CFA00F32B
:1008E000B1F800C00CEA03069E4220D183004FF00D
:1008F0000F0C0CFA03F7BC4305FA03FC4CEA0404A2
:1009000091F803C0BCF1280F06D14FF0010C0CFA8E
:1009100000FCC2F814C00AE091F803C0BCF1480F13
:1009200005D14FF0010C0CFA00FCC2F810C0401CBD
:100930000828D1D31460B1F800C0BCF1FF0F34DD3A
:10094000546800202EE000F1080C4FF0010808FA6E
:100950000CF3B1F800C00CEA03069E4221D18300DB
:100960004FF00F0C0CFA03F7BC4305FA03FC4CEAFA
:10097000040491F803C0BCF1280F05D100F1080C64
:1009800008FA0CF8C2F8148091F803C0BCF1480FC3
:1009900007D100F1080C4FF0010808FA0CF8C2F872
:1009A0001080401C0828CED35460BDE8F08100BF01
:1009B000FEE700BFFEE7704770B5002100230F225D
:1009C000C47804B3154C246804F4E064C4F5E0640E
:1009D000210AC1F10403CA40447804FA03F184787F
:1009E0001440214309010E4C0678A155047804F007
:1009F0001F050124AC4005786D11AD0005F1E0251F
:100A0000C5F8004109E0047804F01F050124AC405A
:100A1000044D0678761145F8264070BD0CED00E0D7
:100A200000E400E080E100E002490143024A116075
:100A3000704700000000FA050CED00E001460020C0
:100A4000034A506820F4404008435060704700005B
:100A50000010024029B1064A52690243044B5A6110
:100A600004E0034A52698243014B5A617047000017
:100A70000010024029B1064AD2690243044BDA61F0
:100A800004E0034AD2698243014BDA6170470000F7
:100A90000010024029B1064A92690243044B9A6150
:100AA00004E0034A92698243014B9A617047000057
:100AB0000010024029B1064AD2680243044BDA60B2
:100AC00004E0034AD2688243014BDA6070470000B9
:100AD0000010024010B500F001F810BD0CB5002068
:100AE000019000903348006840F48030314908603C
:100AF00000BF3048006800F4003000900198401CAE
:100B00000190009818B90198B0F5A06FF1D129486B
:100B1000006800F4003010B10120009001E00020D6
:100B200000900098012843D12348006840F010004D
:100B3000214908600846006820F007000860084660
:100B4000006840F0020008601A484068194948608F
:100B50000846406848600846406840F48060486045
:100B60000846406820F47C1048600846406840F41D
:100B7000881048600846006840F08070086000BF38
:100B80000C48006800F000700028F9D0094840685F
:100B900020F00300074948600846406840F0020022
:100BA000486000BF0348406800F00C000828F9D1F5
:100BB0000CBD0000001002400020024010B500BF34
:100BC000BF2080F31188BFF34F8FBFF36F8F00BF3B
:100BD00001F0AAFC18B14FF080500449086000BF32
:100BE000002080F3118800BF10BD000004ED00E07C
:100BF00010B51348006840F001001149086008462C
:100C00004068104908400E494860084600680E498F
:100C100008400B4908600846006820F480200860FE
:100C20000846406820F4FE0048604FF41F008860CA
:100C3000FFF750FF4FF000600449086010BD00004E
:100C4000001002400000FFF8FFFFF6FE08ED00E094
:100C500010B50121880700F03AF9012828D10121B7
:100C6000800700F025F9184800884FF6FF7101EA67
:100C7000400015490880084600884FF6DC7188421C
:100C800002DB1420104908800F4801884FF0804093
:100C900000F095F90C4800884FF6FF7202EA400117
:100CA0004FF0804000F089F90121880700F000F939
:100CB0000421080700F00BF9012803D10421800763
:100CC00000F0F6F810BD00007800002010B50121FA
:100CD000044800F0FCF8012803D10121014800F08C
:100CE000E7F810BD0004004010B50121044800F0F1
:100CF000EEF8012803D10121014800F0D9F810BD18
:100D00000008004030B589B005460C460121084670
:100D1000FFF7B0FE01210420FFF7BCFE0220ADF872
:100D2000000018208DF8030002208DF802006946AB
:100D30002148FFF7B1FD0020ADF81E00ADF81A0004
:100D4000ADF81C50ADF8184006A94FF0804000F0F7
:100D500039F90121880700F0ABF86020ADF80800F0
:100D60000120ADF80A000020ADF8100013480088FB
:100D7000ADF80E0002A94FF0804000F0C3F8012149
:100D8000880700F089F801220521880700F0B0F8F3
:100D90001C208DF8040001208DF807008DF8050057
:100DA00000208DF8060001A8FFF706FE0121880744
:100DB00000F081F809B030BD000801407800002043
:100DC0007FB505460C4601210220FFF753FE0020A7
:100DD000ADF80A00ADF80600ADF80850ADF80440D3
:100DE00001A9134800F0EEF80121114800F060F865
:100DF00001210F4800F050F820210D4800F0D4F8F0
:100E0000012211460A4800F073F81D208DF80000F9
:100E100001208DF803008DF8010000208DF80200FC
:100E20006846FFF7C9FD0121014800F044F87FBD85
:100E3000000400407FB505460C4601210420FFF761
:100E400019FE0020ADF80A00ADF80600ADF8085014
:100E5000ADF8044001A90F4800F0B4F801210D4895
:100E600000F01AF8012211460A4800F041F81E204D
:100E70008DF8000001208DF803008DF8010000209E
:100E80008DF802006846FFF797FD0121014800F048
:100E900012F87FBD0008004021B1028842F08002B4
:100EA000028004E002884FF67F731A400280704788
:100EB000CA430282704721B1028842F001020280D7
:100EC00004E002884FF6FE731A400280704730B586
:100ED0000246002000230024158A05EA01039589B3
:100EE00005EA010413B10CB1012000E0002030BD7F
:100EF0001AB183890B43838102E083898B43838109
:100F00007047000070B5002400220023058C4FF6C6
:100F1000EF7635400584028C8388048B48F6FF7594
:100F20002C404FF6FF452C400D884FF6FF7606EA21
:100F300005252C434FF6DF752A400D8906EA051575
:100F40002A434D8806EA05152A43154DA84202D0CA
:100F5000144DA8421DD14FF67F752A404D894FF69A
:100F6000FF7606EA05152A434FF6BF752A408D889D
:100F700006EA05152A434FF6FF352B404FF2FF7561
:100F80002B408D8906EA85052B43CD8906EA850528
:100F90002B4383800483CD880587028470BD0000C5
:100FA000002C01400034014082884FF68F731A40B4
:100FB000828082880A4382807047818570470187DA
:100FC00070470000002202881D4B98420ED01D4B36
:100FD00098420BD0B0F1804F08D01B4B984205D0FF
:100FE0001A4B984202D01A4B984204D14FF68F7395
:100FF0001A404B881A43174B984207D0164B984219
:1010000004D04FF6FF431A40CB881A4302808B88E6
:1010100083850B8803850A4B98420BD0094B984275
:1010200008D00E4B984205D00D4B984202D00D4B84
:10103000984201D10B7A0386012383827047000016
:10104000002C014000340140000400400008004032
:10105000000C00400010004000140040004001401F
:10106000004401400048014010B548F6A0414FF44B
:10107000FA60FFF7A5FE14200549088009884FF69D
:10108000FF7202EA410048F6A041FFF73BFE10BDA7
:101090007800002010B50446022C01DB042C05DD8D
:1010A0000FA000F033F84FF0FF3010BD022C04D039
:1010B000032C07D0042C0FD109E001218807FFF78A
:1010C000FAFE0AE001210E48FFF7F5FE05E00121D6
:1010D0000C48FFF7F0FE00E000BF00BF0020E4E78F
:1010E0006E6F20746869732074696D65722C7374F7
:1010F000617274206661696C65642121210A0000B7
:10110000000400400008004000BFFEE70FB4054B9C
:1011100010B503A9044A029800F02CF810BC5DF841
:1011200014FB0000591500086C0000200FB4084B98
:1011300010B504A902AA039800F01CF8044602A9FD
:10114000002000F0B8F9204610BC5DF814FB000048
:10115000B714000802E008C8121F08C1002AFAD11B
:1011600070477047002001E001C1121F002AFBD127
:10117000704700002DE9FF4F8BB0884605460026DA
:1011800006E025280BD0DDE90D1290476D1C761C7A
:1011900028780028F5D10FB03046BDE8F08F002444
:1011A000A146A2460122AE4900E0044315F8013FE2
:1011B000203B02FA03F00842F7D128782A2810D001
:1011C0006FF02F022878A0F13001092915D809EB1A
:1011D000890102EB410144F0020400EB01096D1C9E
:1011E000F0E758F8041B5FEA010903D544F4005402
:1011F000C9F1000944F002046D1C28782E2817D18B
:1012000015F8010F44F004042A280ED06FF02F02C5
:101210002878A0F1300109290AD80AEB8A0102EBEB
:10122000410100EB010A6D1CF2E758F804AB6D1C9C
:1012300028786C280FD006DC4C2817D068280DD0F1
:101240006A2814D104E0742810D07A280FD10DE058
:1012500044F400140AE044F4801401E044F440141F
:101260006978814202D104F580146D1C6D1C2878C8
:10127000692865D006DC00288DD0632827D0642833
:1012800006D15DE06E2808D073282AD0752877D063
:10129000DDE90D129047761CE0E0C4F3025002280D
:1012A00009D003280DD0D8F8001004280DD00E6006
:1012B00008F10408D2E0D8F80010F217C1E9006282
:1012C000F6E7D8F800100E80F2E70E70F0E718F895
:1012D000041B8DF8001000208DF80100EB46012062
:1012E00003E058F804BB4FF0FF3061074FF00007F0
:1012F00001D40AE07F1C57450DDA8742FADB1BF860
:1013000007100029F6D106E07F1C8742FCDB1BF8A2
:1013100007100029F8D1DDE90D23A9EB070081466C
:10132000214600F0B1F83044C61904E0DDE90D12A1
:101330001BF8010B90477F1EF8D22146484688E0F3
:1013400058F8040BC4F302514FF00A0B032900D1E3
:1013500000B2042900D140B2002802DA40422D2117
:1013600002E0210505D52B218DF82410012104E090
:1013700006E0E10710D02021F6E708AF089113E05E
:1013800058F8040BC4F302514FF00A0B032900D1A3
:1013900080B2042900D1C0B20021EEE75946FEF721
:1013A00043FF303107F8011D0028F7D1ADEB0700EE
:1013B00000F1200B600702D524F4803401E04FF0E7
:1013C000010ADA4502DDAAEB0B0000E000208246AC
:1013D00000EB0B0108980144A9EB01000A90E0031F
:1013E00006D4DDE90D2321460A9800F04DF80644A5
:1013F0004FF0000908E009A911F80900DDE90D1214
:10140000904709F10109761C08998945F3DBE0034F
:101410000CD5DDE90D2321460A9800F035F8064485
:1014200004E0DDE90D1230209047761CBAF100018E
:10143000AAF1010AF5DC05E0DDE90D1217F8010B50
:101440009047761CBBF10001ABF1010BF4DC0A986C
:101450002146DDE90D2300F005F806446D1C97E6F2
:10146000092801002DE9F041044600251E461746D3
:10147000880404D405E039462020B0476D1C641E62
:10148000F9D52846BDE8F0812DE9F0410446002554
:101490001E469046C80301D5302700E02027880467
:1014A00004D505E041463846B0476D1C641EF9D5A9
:1014B0002846BDE8F0810A68531C0B601070704725
:1014C0000146002070470146084670472DE9F04765
:1014D00007463E461B480068864201D100242DE0A5
:1014E00000F09AFD75691848D0F800801748D0F8C8
:1014F000009000F0A3FD454501D04D4501D10224E7
:101500001CE01348854212D1B06A70B90324002050
:1015100007E006F15401095C012901D1022402E02F
:10152000401C0128F5DB00BF08E0022406E0094862
:10153000854200D00DB9042400E001242046BDE816
:10154000F087000024000020280000202C0000204C
:10155000304500201C450020074A126802F08072C6
:1015600042B100BF4FF060421268002AFAD04FF03B
:101570006043187070470000FCED00E010B5AAB0A1
:101580004AA103C9CDE9280100F0BAFC27902798A9
:10159000052802D947A0FFF7B9FD25AA4A4827998F
:1015A00000F0B4FC27904948FFF7B0FDBDF8940067
:1015B000002876DD002026906FE0269800EBC00022
:1015C000414901EB8000008B64214843BDF8941031
:1015D00090FBF1F084B26CB3269800EBC0003A495E
:1015E00001EB8000008C269901EBC101364A02EB29
:1015F00081010969269A02EBC202334B03EB820296
:101600009268CDE90204CDE90021269800EBC000E4
:10161000194601EB8000007B28A90B5C269800EBA3
:10162000C000294901EB800029A1426805A8FFF705
:101630007DFD2BE0269800EBC000234901EB8000E4
:10164000008C269901EBC1011F4A02EB8101096957
:10165000269A02EBC2021C4B03EB82029268CDE990
:1016600000210290269800EBC000194601EB800093
:10167000007B28A90B5C269800EBC000124901EB07
:1016800080001BA1426805A8FFF750FD05A920A016
:10169000FFF73CFD2698401C2690DDE92601884294
:1016A0008BD31CA0FFF732FD2AB010BD72524253FB
:1016B00044000000B5B1C7B0C8CECEF1CAFDC1BF6D
:1016C000B9FDB6E0A3A10A00444500201428000893
:1016D000252D313573252D313063252D313064258D
:1016E0002D313264252D313264256425250000001A
:1016F000252D313573252D313063252D313064256D
:101700002D313264252D313264743C3125250000A1
:1017100025730A00C8CECEF1D7B4CCAC3A20202035
:10172000722DD4CBD0D02020522DBECDD0F720208A
:10173000422DD7E8C8FB2020532DB9D2C6F0202077
:10174000442DC9BEB3FD0A001CB54FF44070FFF72D
:101750006BF9FFF789FC1148012111A39622CDE90D
:1017600000100FA1104800F069FE002001210FA316
:101770009622CDE900100DA1104800F05FFE002078
:1017800002210FA39622CDE900100DA10F4800F011
:1017900055FE00F0A5FD00BFFEE700006800002038
:1017A0007461736B31000000CD2000086D6F6E69AD
:1017B000746F72207461736B00000000D117000811
:1017C000414443205461736B00000000E5050008AC
:1017D00008B500F0A3FE009000BFFFF7CFFE4FF466
:1017E0007A71684600F05AFEF7E700002DE9F041F3
:1017F00005460E462648076826480068001D00F08A
:101800006BFB50B92348006890F82C1001208840E9
:1018100021490968814320480160681CD8B9D6B1C4
:101820001E4948681B49096888601A498268096826
:10183000CA6018490968091D82685160154909681C
:10184000091D8160154A134909684A6111460968F2
:10185000491C11601AE07C190E4800684460BC42C3
:1018600007D20C480168091D0D48006800F0BAFB5A
:101870000CE008480168091D0A48006800F0B2FB46
:1018800009480068844201D207480460BDE8F0813D
:1018900038000020240000203C00002030450020BB
:1018A0002C000020280000205400002010B5044621
:1018B00000F0B2FB31480068401C304908603048F5
:1018C000006840B92E4804600846006801280DD120
:1018D00000F030F90AE02B48006838B92848006861
:1018E000C06AE16A884201D8254804602648006839
:1018F000401C2549086008460068606494F82C1074
:101900000120884021490968084320490860E16AAC
:1019100001EB81011E4A02EB81014868A0608268E8
:10192000E260211D826851608160E16A01EB810102
:10193000174A02EB81026261E16A01EB8101144AFC
:1019400052F82110491CE26A02EB8202104B43F864
:10195000221000F073FB0B48006868B1084800686B
:10196000C06AE16A884207D24FF080500949086096
:10197000BFF34F8FBFF36F8F10BD00003400002006
:101980002400002040000020500000203C000020E7
:101990007C44002004ED00E010B516E000F03CFBB4
:1019A0000C48C068C468201D00F096FA0A48006818
:1019B000401E0949086009480068401E0749086040
:1019C00000F03CFB204600F00BF8044800680028BB
:1019D000E4D110BD1C450020340000203000002060
:1019E00010B50446206B00F039FB204600F036FBB2
:1019F00010BD000030B54FF48843174800F00704CD
:101A00002CB1C01D20F00700134C041B1B1B024609
:101A1000124C22600024114D6C60D018083820F060
:101A200007000F4C206000240D4D2D686C600C4D9C
:101A30002D682C601146441A4C60094C24680C60D7
:101A4000084D4C682C60084D4C682C604FF00044E9
:101A5000064D2C6030BD00007C00002000000020FE
:101A600008000020100000200C0000201C000020B6
:101A700000BFFFF791FF064800680128F9D94FF031
:101A8000805004490860BFF34F8FBFF36F8FF0E7BA
:101A90007C44002004ED00E02DE9F05F81460E4615
:101AA00017469A46DDF828800C9CB900A522206BC9
:101AB000FEF7A8FB781E216B01EB800B2BF0070BC8
:101AC00086B1002507E0715D04F134004155705D79
:101AD00000B902E06D1C102DF5D300BF002143209A
:101AE000015502E0002084F83400B8F1050F01D35D
:101AF0004FF00408C4F82C80201D00F070FA04F1A7
:101B0000180000F06CFA2461C8F10500A06164625D
:101B10000020A4F84C00206584F854005246494641
:101B2000584600F051F920600B9808B10B980460FA
:101B3000BDE8F09F10B5002407E004EB84010F4AD4
:101B400002EB810000F03EFA641C052CF5D30C4832
:101B500000F038FA0B4800F035FA0B4800F032FA82
:101B60000A4800F02FFA0A4800F02CFA0448094904
:101B7000086004480849086010BD00007C4400204B
:101B8000E0440020F4440020084500201C450020CB
:101B900030450020280000202C00002010B5014610
:101BA000164800E0006803688B42FBD30246436896
:101BB00013448B4204D143684C682344436001467C
:101BC0000A464B6813440468A34211D10C4C0368C5
:101BD0002468A34208D04B680468646823444B60BF
:101BE00003681B680B6005E0054B1B680B6001E098
:101BF00003680B60884200D0016010BD0000002027
:101C0000080000202DE9F04707460C4690460026C4
:101C1000206848B3204641684968416000F10801E6
:101C200042688A4202D14168496841604168D1F8FE
:101C30000C9000BF204641684968416000F10801EE
:101C400042688A4202D14168496841604168CD6872
:101C500006EBC60007EB800143460122284600F050
:101C6000FDFA761C4D45E5D13046BDE8F087000011
:101C700009480068006808B9012000E0002020B190
:101C80004FF0FF300549086005E003480068C06870
:101C900000680249086070472800002054000020B6
:101CA0000246002101E0521C491C1078A528FAD0F8
:101CB000890888B2704700BFBF2080F31188BFF346
:101CC0004F8FBFF36F8F00BF00BFFEE72DE9F041DC
:101CD00004464FF0000800F03FFB3548006808B9A3
:101CE000FFF788FE33480068204000285BD1B4B17C
:101CF00004F10800A04212D9083404F0070078B1BA
:101D000004F00700C0F108002044A04205D904F007
:101D10000700C0F10800044402E0002400E00024B1
:101D2000002C40D02448006884423CD8234E3046E2
:101D3000056801E02E462D686868A04202D2286836
:101D40000028F7D11A48006885422CD0306800F18D
:101D50000808286830606868001B102807D92F1908
:101D60006868001B78606C603846FFF717FF1249FF
:101D700068680968081A1049086008460068104930
:101D80000968884203D20C4800680D490860094977
:101D9000686809680843686000202860094800688E
:101DA000401C0849086000F087FC4046BDE8F0810F
:101DB000080000201C0000200C0000200000002073
:101DC0001000002014000020001F4FF080730360FB
:101DD000001F21F001030360001F034B0360143850
:101DE0000260203870470000B71C0008024600213E
:101DF00007E0074800EBC10030F812000344481C1C
:101E0000C1B20A29F5DB0A20B3FBF0F080B27047BB
:101E1000F845002010B500F07BFB074908604FF043
:101E2000FF320121002000F013F80446012C02D1FA
:101E300002A0FFF76BF910BD7400002061646320FD
:101E4000776F726B20646F6E652121210A0000009C
:101E50002DE9F04104460F46164600F0DDF81C4817
:101E60000068503050F8240080B9012118480068FB
:101E70005430015556B13046FFF7B8FC4FF0805052
:101E800014490860BFF34F8FBFF36F8F00F0D6F88F
:101E900000F0C2F80E480068503050F824506DB180
:101EA00037B100210A480068503040F8241005E09E
:101EB000681E07490968503141F824000021044890
:101EC00000685430015500F0B9F82846BDE8F081AB
:101ED0002400002004ED00E001460A69D1E9013048
:101EE0009860D1E9010358605068884201D1886840
:101EF0005060002008611068401E10601068704734
:101F00000148006870470000340000202DE9F041CE
:101F10000546884616460024052700F01DFA22488B
:101F2000006880453AD300BF7F1E07EB87021F4B36
:101F300003EB820104EBC40205EB82000122FFF7F0
:101F400061FE0444002FEFD104EBC40105EB8100D6
:101F5000022217490968FFF755FE044404EBC40147
:101F600005EB8100022213490968FFF74BFE044488
:101F700004EBC40105EB810004220F49FFF742FE88
:101F8000044404EBC40105EB810003220B49FFF775
:101F900039FE044416B10A480088308000F08CFBFA
:101FA0002046BDE8F0810000340000207C44002081
:101FB000280000202C0000201C4500203045002077
:101FC0002408004000F1080141604FF0FF318160BA
:101FD00000F10801C160016100210160704700212A
:101FE0000161704710B502460B685C1C0CB91069A2
:101FF00007E002F1080000E04068446824689C4261
:10200000FAD944684C604C68A160886041600A61FC
:102010001468641C146010BD00BFBF2080F31188D9
:10202000BFF34F8FBFF36F8F00BF03480068401CA2
:102030000149086070470000200000200648006841
:10204000401E054908600846006820B9002080F35A
:10205000118800BF00BF70472000002070B5064601
:102060003546FEB1083D2C460F49606809680840B6
:10207000C0B12068B0B90C496068096888436060E5
:1020800000F06AF90949606809680844074908606E
:102090002046FFF783FD06480068401C044908609D
:1020A00000F00AFB70BD00001C0000200C000020A6
:1020B0001800002000204FF0E021086188610248EC
:1020C00048610720086170473F1901000EB50020E4
:1020D0000290019000F022FA009000BF00200290D0
:1020E0000BE00020019002E00198401C0190019853
:1020F0006428F9DD0298401C02900298C828F0DD9F
:102100003221684600F0CAF9E8E700002DE9F04105
:1021100003461446184600BFBF27EFF3118287F32A
:102120001188BFF34F8FBFF36F8F00BF154600F1CB
:102130005402565C02275754121F52F82120521C99
:1021400000F1500747F82120012E74D13D4A126852
:10215000002A4CD14269D0E9027CC7F808C0D0E916
:1021600002C7C7F804C0071DD2F804C0BC4501D19E
:10217000C76857604FF0000CC0F814C017687F1E86
:10218000176090F82C700122BA402F4F3F683A43F5
:102190002D4F3A60C76A07EB8707DFF8B0C00CEB3A
:1021A00087077A688260D2F808C0C0F80CC0071DA3
:1021B000D2F808C0CCF804709760C76A07EB8707AD
:1021C000DFF888C00CEB870CC0F814C0C76A07EBB7
:1021D0008707DFF878C05CF827707F1CD0F82CC028
:1021E0000CEB8C0CDFF8648048F82C7017E0184F6B
:1021F0007A68C261D2F808C0C0F820C000F11807A0
:10220000D2F808C0CCF804709760DFF844C0C0F87A
:1022100028C067463F687F1CCCF8007000BF0D4F98
:10222000C26A3F68FF6ABA4205D90CB10122226036
:102230000122094F3A6000BF85F3118800BFBDE855
:10224000F0810000600000203C0000207C44002061
:102250000845002024000020480000202DE9F0411E
:1022600007460C4690461E4617B91C48006800E019
:1022700038460546256005F134006060E86A206153
:10228000286BE061686CA06000206061B5F84C00CC
:102290002083052E12D011480068854202D100200B
:1022A00020730FE02673032E0CD100F055F8A86AB6
:1022B00008B10220207300F0FFF903E02846FFF781
:1022C00005F92073B8F1000F04D0286BFFF7E8FC84
:1022D000208401E000202084BDE8F081240000205B
:1022E0001CB5154800210B468022CDE9001013A132
:1022F000144800F0A3F80446012C1AD100BFBF20F7
:1023000080F31188BFF34F8FBFF36F8F00BF4FF083
:10231000FF300D49086001200C49086000200C497D
:10232000086048F6A0414FF6FF70FEF783FD00F00D
:102330006BF8084800681CBD5800002049444C4513
:1023400000000000711A0008540000204000002026
:10235000380000205C00002002480068401C014951
:1023600008607047600000201F48006818B1012015
:102370001E49086037E000201C4908601C4800889E
:102380001C490880084600881B49098888420BDDE3
:102390001A49096801F14C000188164A1288164B47
:1023A0001B88D21A11440180124800881249088003
:1023B00013480068B0FA80F0C0F11F0101EB810200
:1023C000104B03EB820042685268426000F1080241
:1023D0004368934202D14268526842604268D268C0
:1023E000064B1A6000BF70476000002048000020C4
:1023F0002408004066000020640000202400002023
:102400003C0000207C44002010B50A48006840F4DD
:102410007F00084908600846006840F07F40086077
:10242000FFF748FE002004490860FDF79FFE0020EA
:1024300010BD000020ED00E0200000202DE9FF4F3E
:1024400085B0804689461746DDE912ABB800FFF734
:102450003DFC064656B15820FFF738FC04460CB147
:10246000266304E03046FFF7F9FD00E000247CB16C
:102470000020CDE900ABCDE902403A46494640464E
:10248000089BFFF709FB2046FFF710FA012501E042
:102490004FF0FF35284609B0BDE8F08F2DE9F04731
:1024A000044688464FF00009FFF756FF16480668B5
:1024B000206800EB08052068B04207D92068A842D0
:1024C0000BD9B54209D94FF0010906E02068A842AE
:1024D00001D8B54201D94FF001092560B9F1000FCB
:1024E00003D0A81B0021FFF781F900F0E5F80746AB
:1024F0003FB94FF0805005490860BFF34F8FBFF3DD
:102500006F8F4846BDE8F0873800002004ED00E0FA
:10251000014908687047000024000020014908684C
:1025200070470000380000202DE9F041002757488F
:10253000006800287ED156480068451C5448056054
:102540008DB95448D0F8008053480068514908605C
:102550005148C0F8008051480068401C4F4908604D
:10256000FFF786FB00BF4E480068854276D300BF68
:1025700048480068006808B9012000E0002020B148
:102580004FF0FF304649086067E042480068C06885
:10259000C4686668B54202D2414806605DE0606981
:1025A000D4E902128A60D4E902214A60211D4268FE
:1025B0008A4201D1E1684160002262610168491EDE
:1025C0000160A06A98B1A06AD4E907128A60D4E9D0
:1025D00007214A6004F1180142688A4201D1216A48
:1025E00041600022A2620168491E016000BF94F8A8
:1025F0002C10012088402B490968084329490860AC
:10260000E16A01EB8101284A02EB81014868A06080
:102610008268E260211D826851608160E16A01EB9D
:102620008101214A02EB81026261E16A01EB8101D1
:102630001D4A00E022E052F82110491CE26A02EB38
:102640008202194B43F822101849E06A0968C96AE6
:1026500088428DD301278BE700E000BF1348006854
:10266000C06A00EB8000104951F82000012800D911
:1026700001270F48006800B1012704E00D480068F9
:10268000401C0C4908603846BDE8F081600000201D
:1026900038000020280000202C0000204C000020E2
:1026A000540000203C0000207C4400202400002036
:1026B000480000204400002070B500240026FFF7E9
:1026C000ABFC4B480068401E49490860084600685A
:1026D00000287DD147480068002879D05BE0464853
:1026E000C068C468A06AD4E907128A60D4E90721E7
:1026F0004A6004F1180142688A4201D1216A4160AE
:102700000022A2620168491E01606069D4E90212D8
:102710008A60D4E902214A60211D42688A4201D1BF
:10272000E1684160002262610168491E016094F81D
:102730002C10012088403149096808432F4908605E
:10274000E16A01EB81012E4A02EB81014868A06039
:102750008268E260211D826851608160E16A01EB5C
:102760008101274A02EB81026261E16A01EB81018A
:10277000234A52F82110491CE26A02EB8202204BE4
:1027800043F822101F49E06A0968C96A884202D3E7
:1027900001201D4908601848006808B9012000E0C0
:1027A000002000289BD00CB1FFF762FA174805689B
:1027B00065B100BFFFF7B8FE10B1012012490860F3
:1027C0006D1E002DF6D10020104908600E4800E073
:1027D00009E0006838B1012630070D490860BFF3F1
:1027E0004F8FBFF36F8FFFF729FC304670BD00009D
:1027F0006000002034000020084500203C0000203C
:102800007C440020240000204800002044000020D8
:1028100004ED00E0C8CECEF1C3FB20202020202014
:102820002020D7B4CCAC20202020202020494420D8
:10283000202020202020D3C5CFC8BCB620202020B7
:10284000202020B6D1D5BB202020202020202043CE
:102850005055CAB9D3C3C2CA0A0000007C28000878
:10286000000000207C00000054110008F828000837
:102870007C000020CC49000064110008000000002A
:102880000000000000000000000000000000000048
:10289000000000000000000000000000AAAAAAAA90
:1028A0000000000000000000000000000000000028
:1028B0000000000000000000000000000000000018
:1028C0000000000000000000000000000000000008
:1028D00000000000000000000400000000000000F4
:1028E00000000000000000000000000000000000E8
:0828F0000000000000000000E0
:0400000508000131BD
:00000001FF
